:020000040000FA
:060000000A128A11B62F5E
:10000C000730831603139F000F308500F0308700F4
:10001C000800F300F2011228731C152816281B285F
:10002C007008F1007108F2071B280310F00D031083
:10003C00F30C7308031D2328242812282528720882
:10004C00272808000A128A1501200A128A110A169A
:10005C008A1150240A128A110A168A11CE230A1206
:10006C008A110A168A11A5230A128A110A128A11F8
:10007C0006200A128A110030F400F5000A128A15C3
:10008C008E220A128A110130F4000030F5000A1297
:10009C008A158E220A128A110230F4000030F50003
:1000AC000A128A158E220A128A110A128A11E02467
:1000BC000A128A11612883120313EA01EB013F3003
:1000CC0083160313450603196C286D28C92859306B
:1000DC004C06031972287328C92883120313650868
:1000EC00031D79287A2883280A168A11E3250A1217
:1000FC008A1183120313E501E50AC630C4004408D3
:10010C00F800C730C5004508F900C830C6004608DD
:10011C00FA00C930C7004708FB00CA30C8004808BD
:10012C00FC00C5300A168A1155260A128A11CD30E8
:10013C0083120313C4004408F800CE30C5004508F0
:10014C00F900CF30C6004608FA00D030C700470887
:10015C00FB00D130C8004808FC00CC300A168A11CC
:10016C0009270A128A110A128A1550230A128A11B7
:10017C000A128A15A7260A128A110A128A1519253B
:10018C000A128A11C9286A3083120313C400440866
:10019C00F20068300A168A1158250A128A110A12BE
:1001AC008A1188220A128A110A128A11E0240A1270
:1001BC008A11612861280A128A1100287A2957307D
:1001CC00F000700883120313C9004B30F000700864
:1001DC00CA004430F0007008CB00A1294D30F0006B
:1001EC0070088312C9004F30F0007008CA004E30FE
:1001FC00F0007008CB00A1295430F0007008831275
:10020C00C9005530F0007008CA004530F000700885
:10021C00CB00A1295730F00070088312C90045307B
:10022C00F0007008CA004430F0007008CB00A1291F
:10023C005430F00070088312C9004830F000700888
:10024C00CA005530F0007008CB00A1294630F000F0
:10025C0070088312C9005230F0007008CA0049308F
:10026C00F0007008CB00A1295330F0007008831205
:10027C00C9004130F0007008CA005430F00070081A
:10028C00CB00A1295330F00070088312C9005530FF
:10029C00F0007008CA004E30F0007008CB00A129A5
:1002AC003130F000700883160313D2004D30F0008B
:1002BC00700883120313C9004F30F0007008CA0095
:1002CC004E30F0007008CB00A1293F30F0007008D0
:1002DC008312C9003F30F0007008CA003F30F000B4
:1002EC007008CB00A129A129831603135208F00032
:1002FC00F1017108003A031984296B297008313A0D
:10030C000319F428033A03190229013A0319102995
:10031C00073A03191E29013A03192C29033A031928
:10032C003A29013A031948290F3A031956296F3A09
:10033C000319E5286B290800831203135003510499
:10034C00031DA929AA29B929831603132308F4002C
:10035C007408A0002408F4007408A1002608F40016
:10036C007408A200B9298316031320080F39F4006E
:10037C00F5017408F6007508F7000530F000003040
:10038C00F1007608F4007408F2000A168A112F2581
:10039C000A128A110A168A118F240A128A118316DC
:1003AC0003132008F039F400F5017408F600750801
:1003BC00F700760E0F39F600770EF039F604770E4B
:1003CC000F39F700F030F71D0030F7040430F0005F
:1003DC000030F1007608F4007408F2000A168A1155
:1003EC002F250A128A110A168A118F240A128A11D1
:1003FC008316031321080F39F400F5017408F60075
:10040C007508F7000330F0000030F1007608F400B6
:10041C007408F2000A168A112F250A128A110A167C
:10042C008A118F240A128A11831603132108F039BA
:10043C00F400F5017408F6007508F700760E0F3914
:10044C00F600770EF039F604770E0F39F700F0301E
:10045C00F71D0030F7040230F0000030F100760890
:10046C00F4007408F2000A168A112F250A128A1158
:10047C000A168A118F240A128A1183160313220872
:10048C000F39F400F5017408F6007508F700013017
:10049C00F0000030F1007608F4007408F2000A163F
:1004AC008A112F250A128A110A168A118F240A1210
:1004BC008A11831603132208F039F400F50174082D
:1004CC00F6007508F700760E0F39F600770EF03946
:1004DC00F604770E0F39F700F030F71D0030F704F3
:1004EC000030F000F1007608F4007408F2000A16EF
:1004FC008A112F250A128A110A168A118F240A12C0
:10050C008A11080037308312031368066904031D2F
:10051C00902A912AA82A4C306F06031D962A972AF6
:10052C009A2AE601E60A9A2A53306F06031D9F2A7F
:10053C00A02AA12AE601EA01EB016330E8000030B1
:10054C00E900A82A6330680669040319AE2AAF2AA9
:10055C00802B6A086B040319B42AB52A7D2BE7019A
:10056C00E70A012B0A128A1501200A128A110A16AF
:10057C008A11E1240A128A119030F8000030F90037
:10058C00E930FA000030FB000A168A113C240A12EA
:10059C008A11742B0A128A1501200A128A110A1662
:1005AC008A11E1240A128A119030F8000030F90007
:1005BC00D730FA000130FB000A168A113C240A12CB
:1005CC008A11742B0A128A1501200A128A110A1632
:1005DC008A11E1240A128A119030F8000030F900D7
:1005EC00D030FA000130FB000A168A113C240A12A2
:1005FC008A11742B742B831203136B08003A0319A2
:10060C00082B742B6A08013A0319B82A033A031908
:10061C00D02A013A0319E82A742B742B6A30AF00E4
:10062C002F08F20068300A168A1158250A128A110E
:10063C00831203136908803AFF0080307F02031D88
:10064C00292B6230680203182C2B2D2B742B0A12C9
:10065C008A1501200A128A119330F1000030F20041
:10066C00831203136808B83E840083170008AF0098
:10067C00B0012F08F3003008F4000A168A11B423D5
:10068C000A128A11831203136808B83E8400831778
:10069C0000080A128A15A5240A128A110A168A1150
:1006AC00BB240A128A110A168A11BB240A128A1157
:1006BC000A168A11BB240A128A110A168A11BB2443
:1006CC000A128A110A168A11BB240A128A110A12FA
:1006DC008A1501200A128A11742B742B83120313AE
:1006EC00670303197A2B7B2B142B7D2B7D2BEA01B3
:1006FC00EB01802B08008316031305140A168A11CC
:10070C0046270A128A11CC300A128A15BE200A1208
:10071C008A1144300A128A15BE200A128A1114302A
:10072C0083120313A4000030A5002508803AFF00B3
:10073C0080307F02031DA42B013024020318A72B49
:10074C00A82BAA2BC52BC52B0A168A11C0270A1257
:10075C008A11FF3083120313A4070318A50AFF3074
:10076C00A5072508803AFF0080307F02031DC02BAF
:10077C00013024020318C32BC42BAA2BC52B0A1639
:10078C008A1146270A128A11CC300A128A15BE2009
:10079C000A128A11BE300A128A15BE200A128A1158
:1007AC000A128A157A200A128A1183120313A000E6
:1007BC002008E2000A128A157A200A128A11831282
:1007CC000313A0002008E100831603130514831201
:1007DC0003136108A00004300310A00DFF3E031D9D
:1007EC00F22B3F302005A1006208A2000430031058
:1007FC00A20CFF3E031DFD2B22082104A30023089D
:10080C00E0006208A00003300310A00DFF3E031DA2
:10081C000A2C0310200DA1002108DF00162C162C29
:10082C000A30F0000030F1006008A000A10120089F
:10083C00F2002108F3000A128A15ED220A128A111D
:10084C00700883120313A2002208DD000A30F000A6
:10085C000030F1006008A000A1012008F20021087E
:10086C00F3000A128A15C1230A128A117008831226
:10087C000313A2002208DE00CC01CD01DF1F472CA0
:10088C00482C512C4C08883ECC004D080318013ED6
:10089C00133ECD00512C5F1F542C552C5E2C4C0854
:1008AC00C43ECC004D080318013E093ECD005E2C21
:1008BC00DF1E612C622C6B2C4C08E23ECC004D08E8
:1008CC000318013E043ECD006B2C5F1E6E2C6F2C6A
:1008DC00782C4C08713ECC004D080318013E023EAA
:1008EC00CD00782CE830F6000330F7004D08F90005
:1008FC004C08F8000A128A154B210A128A11760844
:10090C0083120313A0002008DC006430F6000030D2
:10091C00F7004D08F3004C08F200E830F00003300B
:10092C00F1000A128A1539200A128A117108F9008D
:10093C007008F8000A128A154B210A128A117608DF
:10094C0083120313A0002008DB000A30F6000030ED
:10095C00F7004D08F3004C08F2006430F000003052
:10096C00F1000A128A1539200A128A117108F9004D
:10097C007008F8000A128A154B210A128A1176089F
:10098C0083120313A0002008DA000A30F0000030B4
:10099C00F1004D08F3004C08F2000A128A153920B8
:1009AC000A128A11700883120313A0002008D900C0
:1009BC00000008003B308400C93083120313B700D9
:1009CC000408B8000730B900370884008317000802
:1009DC00BA00B70A3808840083133A088000B80AB2
:1009EC00B90BEA2C0A128A11E4200A128A11DB30A4
:1009FC0083120313B7003708A600DC30B8003808A0
:100A0C00A700DA300A128A1530220A128A118030B5
:100A1C00F8000030F9003B30FA000030FB000A16F9
:100A2C008A113C240A128A1120300A168A111424C5
:100A3C000A128A11831603135A080A168A111424EF
:100A4C000A128A11831603135B080A168A111424DE
:100A5C000A128A112E300A168A1114240A128A11CB
:100A6C00831603135C080A168A1114240A128A11BD
:100A7C003F308316031353060319452D462D4C2D79
:100A8C002A300A168A1114240A128A1120300A16E6
:100A9C008A1114240A128A11831203136E080A167F
:100AAC008A1114240A128A1120300A168A1114246D
:100ABC000A128A11831203136603031D662D672D18
:100ACC00812D5330B7003708EF006F080A168A11D2
:100ADC0014240A128A110A168A11BB240A128A11CA
:100AEC000A168A11BB240A128A110A168A11BB240F
:100AFC000A128A11812D831203136608031D872D98
:100B0C00882DA22D4C30B7003708EF006F080A165D
:100B1C008A1114240A128A110A168A11BB240A1289
:100B2C008A110A168A11BB240A128A110A168A1112
:100B3C00BB240A128A11A22D9030F8000030F90063
:100B4C00D030FA000130FB000A168A113C240A123C
:100B5C008A1120300A168A1114240A128A1183165B
:100B6C00031353080A168A1114240A128A118316C5
:100B7C00031354080A168A1114240A128A112030FD
:100B8C000A168A1114240A128A1120300A168A11A4
:100B9C0014240A128A1128300A168A1114240A12F3
:100BAC008A118312031349080A168A1114240A1293
:100BBC008A11831203134A080A168A1114240A1282
:100BCC008A11831203134B080A168A1114240A1271
:100BDC008A1129300A168A1114240A128A118830B3
:100BEC00F8000030F900D730FA000130FB000A168B
:100BFC008A113C240A128A1120300A168A111424F4
:100C0C000A128A11831603134C080A168A1114242B
:100C1C000A128A11831603134D080A168A1114241A
:100C2C000A128A112F300A168A1114240A128A11F8
:100C3C00831603134E080A168A1114240A128A11F9
:100C4C00831603134F080A168A1114240A128A11E8
:100C5C002F300A168A1114240A128A1183160313D0
:100C6C0050080A168A1114240A128A1183160313C7
:100C7C0051080A168A1114240A128A119830F800A5
:100C8C000030F900E930FA000030FB000A168A1136
:100C9C003C240A128A1120300A168A1114240A12D2
:100CAC008A118316031345080A168A1114240A1292
:100CBC008A118316031346080A168A1114240A1281
:100CCC008A113A300A168A1114240A128A118316D0
:100CDC00031347080A168A1114240A128A11831660
:100CEC00031348080A168A1114240A128A113A307E
:100CFC000A168A1114240A128A118316031349083E
:100D0C000A168A1114240A128A11831603134A082C
:100D1C000A168A1114240A128A1119308312031329
:100D2C006C066D0403199B2E9C2EB52F06306C0699
:100D3C006D04031DA22EA32EB12E5308803AFF0082
:100D4C0080307F02031DAC2E1E3052020318AF2ED2
:100D5C00B02EC12EB12E831203136D08803AFF0002
:100D6C0080307F02031DBC2E07306C02031CBF2E8B
:100D7C00C02EF02EC12E831203136D08803AFF0093
:100D8C0080307F02031DCC2E16306C02031CCF2E3C
:100D9C00D02EE72E1630831203136C066D04031D40
:100DAC00D82ED92EF02E5308803AFF0080307F02C7
:100DBC00031DE22E1F3052020318E52EE62EF02EF4
:100DCC00E72E3630831603135202031CEE2EEF2E41
:100DDC003B2FF02E0730831203136C066D04031D9A
:100DEC00F82EF92EFE2ED31FFC2EFD2E0C2FFE2ED0
:100DFC006D08803AFF0080307F02031D072F0830FA
:100E0C006C02031C0A2F0B2FB52F0C2F831203130C
:100E1C006D08803AFF0080307F02031D172F1730BA
:100E2C006C02031C1A2F1B2F322F17308312031343
:100E3C006C066D04031D232F242FB52F5308803A05
:100E4C00FF0080307F02031D2D2F0130520203184A
:100E5C00302F312FB52F322F363083160313520219
:100E6C00031C392F3A2FB52F3B2F53085A02031C62
:100E7C00402F412F4E2F5A085302031C462F472F49
:100E8C00AC2F5B085402031C4C2F4D2FAC2F4E2F54
:100E9C003F3053060319532F542FAC2F2A30831293
:100EAC000313B7003708EE00831603135408CD3E26
:100EBC0083120313C200FF3003180030C3008316E3
:100ECC0003135A085302031C6C2F6D2F812F5B08E0
:100EDC00D03E83120313B700FF3003180030B80064
:100EEC0038084302031D7C2F3708420203187F2F5A
:100EFC00802F8A2F812F8316031353085A0203184D
:100F0C00882F892FB52F8A2F8312660303198F2FF1
:100F1C00902FB52F0A168A11C1230A128A110A16AC
:100F2C008A11BB240A128A110A168A11C1230A12C9
:100F3C008A110A168A11BB240A128A110A168A11FE
:100F4C00C1230A128A11B52FB52FB52F2030831269
:100F5C000313B7003708EE00B52FB52FB52F0800D7
:100F6C008317DE30FD000930FE00E230FF009030C8
:100F7C0084000A168A1105240A128A114D30FD00CC
:100F8C001730FE008330FF00103084000A168A11DF
:100F9C0005240A128A118313F030FD001430FE0070
:100FAC00A530FF00DA3084000A168A1105240A12D3
:100FBC008A117030FD001330FE00A130FF006C3040
:100FCC0084000A168A1105240A128A11A0308400A2
:100FDC00DA300A168A11AC230A128A1149308400BD
:100FEC006C300A168A11AC230A128A1183010A1278
:040FFC008A11282806
:10100200831603138501880106309F0083120313A0
:1010120005100A168A11BB240A128A1583120313B9
:101022000514000083120313051530300A168A11C5
:1010320028240A128A1501300A168A1128240A1253
:101042008A1506300A168A1128240A128A150C30CB
:101052000A168A1128240A128A150A168A11EE2300
:101062000A128A150A168A11DD230A128A15080045
:101072007008710403193E283F287428F501F50A07
:101082004E2801300310F00DF10DFF3E031D4328E1
:101092000130F4007408F5074E28F11F5128522838
:1010A20042285428542871087302031D5A287008D4
:1010B2007202031C5D285E2865287008F20271081E
:1010C200031CF303F302652801300310F10CF00C4A
:1010D200FF3E031D66280130F502031D71287228A8
:1010E2005428742874287308F1007208F0007928D3
:1010F2000800F5010830F4007408F6007608031DB4
:10110200832884288628BB28BB280310F50C831269
:1011120003130510831603130510000000000000DE
:1011220000000000000083160313051400000000F5
:101132000000000000000030831203130518013084
:10114200D80058080319A628A728A928F517A928FE
:101152000730F4007408F00002300A168A117A246B
:101162000A128A150130F6027608031DB928BA2838
:101172008628BB287508BD280800F7000830F4004F
:101182007408F8007808031DC728C828CA2801294E
:10119200012977080139F4007408F6008312031359
:1011A2000510831603130510000000000000000064
:1011B20000007603031DDE28DF28E32883160313CD
:1011C2000514E3280730F4007408F00002300A1610
:1011D2008A117A240A128A15831603130514000051
:1011E20000007708F4000310740CF5007508F7008E
:1011F2000130F8027808031DFF280029CA280129B6
:1012020008000430F3007308F4009330F30073080D
:10121200F5004730F3007308F7007703FF3A7507CC
:10122200F3007308F8007808031D182919291B29EF
:101232004A294A297408F3007308F6007608031D48
:101242002329242926294229422983120313891496
:10125200780877070A168A1165240A128A158312FA
:1012620003138910780877070A168A1165240A126F
:101272008A150130F6027608031D402941292629E4
:1012820042290130F8027808031D482949291B29FF
:101292004A290800FB01FC01760877040319522948
:1012A20053299029FD01FD0A622901300310F60D30
:1012B200F70DFF3E031D57290130FA007A08FD079A
:1012C2006229F71F6529662956296829682901308C
:1012D2000310FB0DFC0DFF3E031D692977087902FF
:1012E200031D752976087802031C7829792981293A
:1012F2007608F8027708031CF903F9027B148129A6
:1013020001300310F70CF60CFF3E031D8229013059
:10131200FD02031D8D298E296829902990297C08B8
:10132200F7007B08F6009529080083120313E401F5
:10133200F201F20A831603130616F301F40174088C
:10134200803AFF0080307F02031DA9290830730212
:10135200031CAC29AD29AF29D929D929831203133A
:101362000610061EB529B629C5297208F000730AAF
:10137200BC290310F00DFF3E031DBA297008640456
:10138200F1007108E400C52906140130F3070318BF
:10139200F40A0030F4077408803AFF0080307F02BC
:1013A200031DD52908307302031CD829D929AF2976
:1013B2008316031306128312031306106408E1292D
:1013C2000800303431343234333434343534363442
:1013D200373438343934C034F934A434B03499341D
:1013E20092348234F83480349034303431343234AC
:1013F20033343434353436343734383439343034A1
:101402003134323433343434353436343734383496
:10141200393430343134323433343434353436348C
:1014220037343834393449344E34563441344C34F8
:1014320049344434543445344D3450343A342034ED
:10144200003454345234493447343A34003400348A
:1014520044344134543445343A3400340034831231
:101462000313B6000A168A11A5230A128A150A1254
:101472008A1181230A128A150A168A11C0270A12B2
:101482008A152C308400903083120313A8000408BC
:10149200A9000A30AA002808840083170008AB00BC
:1014A200A80A2908840083132B088000A90AAA0B22
:1014B2004C2A8316031327082C3E8400000883124B
:1014C2000313A800A9013608840028088000840AB2
:1014D200290880008316031329082C3E8400000883
:1014E20083120313A800A90126088400280880009B
:1014F200840A29088000831603132B082C3E8400DB
:10150200000883120313A800A901270884002808F1
:101512008000840A290880000800F901FA017A088B
:10152200803AFF0080307F02031D992A063079023B
:10153200031C9C2A9D2A9F2AC72AC72A3F30F600ED
:101542000730F7007708F00074080A128A110F209A
:101552000A128A15C53E7907F800780884007608D1
:10156200831380000130F9070318FA0A0030FA07E2
:101572007A08803AFF0080307F02031DC22A0630BB
:101582007902031CC52AC62A9F2AC72A7403750436
:10159200031DCC2ACD2AEC2A5930F6007608831690
:1015A2000313CC005930F6007608CD004D30F6001A
:1015B2007608CE004D30F6007608CF004430F600B3
:1015C2007608D0004430F6007608D1005730F60095
:1015D2007608D200EC2A0800F601F31FF12AF22A5B
:1015E200FA2AF209F309F20A0319F30AF601F60AD2
:1015F200FA2AF11FFD2AFE2A042BF009F109F00A4A
:101602000319F10A042B700871040319092B0A2B20
:101612003F2BF501F50A192B01300310F00DF10DE6
:10162200FF3E031D0E2B0130F4007408F507192B41
:10163200F11F1C2B1D2B0D2B1F2B1F2B710873024F
:10164200031D252B70087202031C282B292B302B1B
:101652007008F2027108031CF303F302302B01300D
:101662000310F10CF00CFF3E031D312B0130F5028B
:10167200031D3C2B3D2B1F2B3F2B3F2B76080319C1
:10168200432B442B4A2BF209F309F20A0319F30AFA
:101692004A2B7308F1007208F0004F2B08008312E6
:1016A2000313D201D301EC01ED01831603134508A4
:1016B200F600760883120313A80083160313460864
:1016C200F600760883120313A90083160313470852
:1016D200F600760883120313AA0083160313480840
:1016E200F600760883120313AB002808D03EF00000
:1016F200FF3003180030F1000A30F2000030F3002E
:101702000A168A1107250A128A1571088312031311
:10171200A1007008A0002908D03EA200FF300318E3
:101722000030A3002A08D03EF000FF30031800303A
:10173200F1000A30F2000030F3000A168A11072580
:101742000A128A15710883120313A5007008A400F7
:101752002B08D03EA600FF3003180030A700220855
:101762002007EC0023080318230A2107ED002608AE
:101772002407D20027080318270A2507D3000800E8
:10178200F601F11FC52BC62BCE2BF009F109F00A89
:101792000319F10AF601F60ACE2BF31FD12BD22B35
:1017A200DC2BF209F309F20A0319F30A0130F400FF
:1017B2007408F606DC2BF701F801700871040319AE
:1017C200E32BE42B212CF501F50AF32B0130031056
:1017D200F00DF10DFF3E031DE82B0130F4007408FB
:1017E200F507F32BF11FF62BF72BE72BF92BF92B30
:1017F20001300310F70DF80DFF3E031DFA2B71089F
:101802007302031D062C70087202031C092C0A2C99
:10181200122C7008F2027108031CF303F30277140E
:10182200122C01300310F10CF00CFF3E031D132C9F
:101832000130F502031D1E2C1F2CF92B212C212C0B
:1018420076080319252C262C2C2CF709F809F70AFF
:101852000319F80A2C2C7808F1007708F000312CD3
:101862000800831203138616BE300A168A111A263E
:101872000A128A15831203132208103E840083176A
:101882000008F500750883160313DB0083120313A7
:101892002008103E84000008F50075088316031323
:1018A200DC00831203132408103E84000008F500B4
:1018B200750883160313DD00831203132608103EF6
:1018C20084000008F500750883160313DE008312F6
:1018D20003132808103E84000008F50075088316DB
:1018E2000313E000F601F7017708803AFF00803029
:1018F2007F02031D7E2C08307602031C812C822C71
:10190200842CA12CA12C7608DA3E840083130008D3
:101912000A168A111A260A128A150130F6070318C6
:10192200F70A0030F7077708803AFF0080307F021D
:10193200031D9D2C08307602031CA02CA12C842CA4
:10194200831203138612080083120313AE00032DC1
:10195200182D2E08FD005608C53E84007D0883130D
:1019620080006330E8000030E9000130D607031838
:10197200D70A0030D7070330AC000030AD000A129E
:101982008A151A260A128A15182D831203132E0895
:10199200FD005608CC3E84007D088313800063302E
:1019A200E8000030E9000130D6070318D70A0030FA
:1019B200D7070630AC000030AD000A128A151A268D
:1019C2000A128A15182D831203132E08FD005608D9
:1019D200D33E84007D08831380006330E80000302A
:1019E200E9000130D6070318D70A0030D7070130C3
:1019F200AC000030AD000A128A151A260A128A15A6
:101A0200182D182D831203136B08003A03190A2D9F
:101A1200182D6A08003A0319182D013A0319AA2C45
:101A2200033A0319C62C013A0319E42C182D0800B5
:101A3200831603134008831203135506031D272D33
:101A4200831603133F0883120313540603192A2D26
:101A52002B2D8E2D831603133F0840040319322DBC
:101A6200332D8E2D692D692D8E2D3230F0007008A8
:101A7200D2008E2D3330F0007008D2008E2D34301B
:101A8200F0007008D2008E2D3530F0007008D200C0
:101A92008E2D3630F0007008D2008E2D3730F000D7
:101AA2007008D2008E2D3130F0007008D2008E2DD9
:101AB2003F30F000700883120313C9003F30F0007A
:101AC2007008CA003F30F0007008CB008E2D8E2DBA
:101AD200831603135208F000F1017108003A03194A
:101AE200732D592D7008313A0319362D033A031913
:101AF2003B2D013A0319402D073A0319452D013AAE
:101B020003194A2D033A03194F2D013A0319542D93
:101B1200603A03198E2D592D8E2D0800F73083124D
:101B2200031387000000831203130708F000F1017A
:101B32007008CE007108CF00F0304E05CE000030A4
:101B42004F05CF00F0304E064F040319A92DAA2DE0
:101B5200B12D07304E04CE0000304F04CF00192EB5
:101B6200FB3087000000831203130708F000F10125
:101B72007008CE007108CF00F0304E05CE00003064
:101B82004F05CF00F0304E064F040319C92DCA2D60
:101B9200D12D0B304E04CE0000304F04CF00192E51
:101BA200FD3087000000831203130708F000F101E3
:101BB2007008CE007108CF00F0304E05CE00003024
:101BC2004F05CF00F0304E064F040319E92DEA2DE0
:101BD200F12D0D304E04CE0000304F04CF00192EEF
:101BE200FE3087000000831203130708F000F101A2
:101BF2007008CE007108CF00F0304E05CE000030E4
:101C02004F05CF00F0304E064F040319092E0A2E5D
:101C1200112E0E304E04CE0000304F04CF00192E8C
:101C2200FF30CE000030CF00192E192E192E192E9A
:101C32000800831203136A036B04031D212E222E54
:101C4200362E2D08803AFC005708803A7C02031D8C
:101C52002C2E56082C0203182F2E302E362E0A1642
:101C62008A11E3250A128A15362E831203132D08D0
:101C7200803AFC005708803A7C02031D422E560827
:101C82002C020318452E462EA62E7F2E7F2E3F3085
:101C920083160313450603194F2E502E8B2E333015
:101CA20045020318552E562E6A2E32304502031C69
:101CB2005B2E5C2E632E343046020318612E622E98
:101CC2006A2E632E36304702031C682E692E8B2E35
:101CD2006A2E0A128A1501200A128A150A168A1118
:101CE200B2250A128A150030F400F5000A128A158C
:101CF2008E220A128A158B2E8B2E8B2E83120313A1
:101D02006B08003A0319862E8B2E6A08013A0319D2
:101D1200482E8B2E83120313D601D701E7016330BD
:101D2200E8000030E9006A036B040319992E9A2E29
:101D3200A22E02306A066B04031DA02EA12EA32E32
:101D4200A22EE501EA01EB01A62E0800443083161B
:101D520003134C060319AE2EAF2E4B2F831203131F
:101D6200550883160313C000831203135408831605
:101D72000313BF004C08D03EF000FF3003180030C0
:101D8200F1000A30F2000030F3000A168A1107252A
:101D92000A128A15710883120313A1007008A000A9
:101DA200831603134D08D03E83120313A200FF30A3
:101DB20003180030A300831603134E08D03EF00030
:101DC200FF3003180030F1000A30F2000030F30057
:101DD2000A168A1107250A128A157108831203133B
:101DE200A5007008A400831603134F08D03E831287
:101DF2000313A600FF3003180030A7008316031355
:101E02005008D03EF000FF3003180030F1000A30D5
:101E1200F2000030F3000A168A1107250A128A1509
:101E2200710883120313A9007008A8008316031314
:101E32005108D03E83120313AA00FF30031800306A
:101E4200AB002208200783160313C1008312031379
:101E520023080318230A210783160313C2008312DF
:101E620003132608240783160313C30083120313E4
:101E720027080318270A250783160313C4008312B1
:101E820003132A082807D4002B0803182B0A290752
:101E9200D5004B2F0800C32F073083160313E7002A
:101EA2000030E800FF2F083083160313E7000030EC
:101EB200E800FF2F093083160313E7000030E80023
:101EC200FF2F043083160313E7000030E800FF2FD2
:101ED200053083160313E7000030E800FF2F0630B9
:101EE20083160313E7000030E800FF2F013083164A
:101EF2000313E7000030E800FF2F023083160313BC
:101F0200E7000030E800FF2F033083160313E700D9
:101F12000030E800FF2F83160313E701E801FF2FCB
:101F2200373083160313E7000030E800FF2FFF2F3E
:101F3200FF2F033083160313BD000030BE00623052
:101F4200E7000030E800FF2F023083160313BD00C4
:101F52000030BE006230E7000030E800FF2F0130A1
:101F620083160313BD000030BE006230E70000306C
:101F7200E800FF2F633083160313E7000030E80008
:101F8200FF2FFF2F831203134F08003A0319CA2FA2
:101F9200FF2F4E08773A03195B2F0C3A0319542F7F
:101FA200063A03194D2F033A0319FF2FC93A0319B1
:101FB200702F0C3A0319692F063A0319622F033A5C
:101FC20003199A2F693A0319852F0C3A03197E2FA8
:101FD200063A0319772F033A0319A52F393A031941
:101FE200912F0C3A03198C2F063A0319FF2F033A4B
:101FF2000319B02F113A0319BB2FFF2F080010301D
:102002008A000408840A82070034C034F934A434F4
:0E201200B034993492348234F83480349034EF
:102742001934003420344C340730831603139F00AD
:1027520085018801080064008001840A04060319C7
:1027620000340406AD2B71080A168A1128240A16B1
:102772008A1173080A168A1114240A168A1108008B
:102782008316031389010A128A1502210A168A1175
:102792000130831603138900080083160313850191
:1027A200880106309F0002308600FF308312031337
:1027B2008500FF30880008008316031339080A16C3
:1027C2008A1128240A168A11831603133B080A1653
:1027D2008A1128240A168A11080001300A168A1161
:1027E20028240A168A1134300A168A1128240A1655
:1027F2008A1130300A168A1128240A168A11080012
:102802007E088A007F0882000A168A1101240A16AD
:102812008A118000840A04087D0603190034FF0A25
:102822000319FE0A052CF0000A168A1184250A16DD
:102832008A11831203138516051270088800851504
:102842000000000000008312031385110800F0004D
:102852000A168A1184250A168A1183120313851215
:102862000512700888008515000000000000831220
:1028720003138511080078080A168A1128240A16FB
:102882008A110530F2000030F3007A08F4007B0868
:10289200F5000A168A1190260A168A110800831278
:1028A20003130610861286168E300A168A111A260D
:1028B2000A168A1100300A168A111A260A168A1175
:1028C2008312031386120800F1007108F0007008E9
:1028D200F2007208031D6E2C6F2C712C792C792C4E
:1028E2000130F2027208031D772C782C712C792C9E
:1028F2000800F2007008F1007108F300802C01302A
:10290200F302031D852C862C802C872C0130F202C9
:10291200031D8C2C8D2C7B2C8E2C08006430F00037
:102922000030F100952C952CFF30F0070318F10AC6
:10293200FF30F107700A031DA22C710A031DA22C9D
:10294200A32C952CA42C0800003402340334103438
:10295200123402341834003453344534543420349D
:10296200003463340034543449344D3445343A34F9
:1029720000340034F001F1017108803AFF00933015
:102982007F02031DC62C88307002031CC92CCA2C7E
:10299200CC2CE02CE02C0130F0070318F10A0030B7
:1029A200F1077108803AFF0093307F02031DDB2C90
:1029B20088307002031CDE2CDF2CCC2CE02C0800AB
:1029C200783084008316031362088000840A630847
:1029D2008000840A64088000840A65088000840AF2
:1029E2006608800080300A168A1128240A168A1185
:1029F2000430F2000030F3007830F4000030F500CB
:102A02000A168A1190260A168A110800F401F501A5
:102A12000A2D701C0D2D0E2D142D7208F4070318AB
:102A2200F50A7308F50701300310F20DF30DFF3EAE
:102A3200031D152D01300310F10CF00CFF3E031D98
:102A42001C2D70087104031D272D282D0A2D292DF8
:102A52007508F1007408F0002E2D0800831203138C
:102A620050035104031D362D372D442D7208AE3EFE
:102A7200840083170008F3007008AD3E84007308D9
:102A820083138000442D50085104031D492D4A2D03
:102A9200572D7208AE3E840083170008F3007008B9
:102AA200B33E8400730883138000572D0800F3009F
:102AB2000A128A1106200A168A110A128A158F250D
:102AC2000A168A11831203134F08F1004E08F00010
:102AD2000A128A154C270A168A1173088400831673
:102AE2000313670883138000840A68088000720851
:102AF20084003D088000840A3E0880006330E700BD
:102B02000030E800080083120313E301E30AFF30F8
:102B12008316031388008312031385120516A82D4A
:102B2200000000000000831203138515000000005E
:102B3200000083120313881B9F2DA02DA12DE301FA
:102B4200000000000000831203138511A82D630802
:102B5200031DAC2DAD2D912D851183160313880114
:102B6200080024308400C23083120313A00004083A
:102B7200A1000730A2002008840083170008A300E8
:102B8200A00A21088400831323088000A10AA20B53
:102B9200BC2D0A128A1501200A168A118830F80003
:102BA2000030F9002430FA000030FB000A168A11C6
:102BB2003C240A168A1144300A168A1114240A1671
:102BC2008A1108000A128A1550230A168A110A125B
:102BD2008A15A7260A168A11831203136D08A1000B
:102BE2006C08A0005308A3005208A2005508A500D3
:102BF2005408A40083160313440883120313A70086
:102C020083160313430883120313A60083160313C8
:102C1200420883120313A900831603134108831287
:102C22000313A8000A128A1532240A168A11192ED1
:102C32000800F400F201F3017308803AFF008030CB
:102C42007F02031D262E08307202031C292E2A2E13
:102C52002C2E512E512E8312031306120610741CB1
:102C6200332E342E362E0616362E7408F00003103C
:102C7200700CF1007108F40006140130F207031819
:102C8200F30A0030F3077308803AFF0080307F02B6
:102C9200031D4D2E08307202031C502E512E2C2E75
:102CA200831203130610080083120313A000D0013D
:102CB200D1010A168A11CC260A168A110A128A1121
:102CC200A2210A168A11831603133308FD00831208
:102CD2000313200884007D088313800083160313E6
:102CE2003408FD00780884007D0880003508FD0066
:102CF200790884007D0880003608FD007A08840087
:102D02007D0880003708FD007B0884007D08800074
:102D12003808FD007C0884007D08800008007308E4
:102D2200F7007208F6007708803AFF0080307F02D1
:102D3200031D9D2E013076020318A02EA12EA32E74
:102D4200CB2ECB2E740884008317751C83130008C6
:102D52000A168A1114240A168A110A168A11BB2429
:102D62000A168A110130F4070318F50AFF30F60734
:102D72000318F70AFF30F7077708803AFF00803020
:102D82007F02031DC62E013076020318C92ECA2EF9
:102D9200A32ECB2E0800831203138616BF300A1609
:102DA2008A111A260A168A11F601F7017708803A63
:102DB200FF0080307F02031DE02E07307602031CE5
:102DC200E32EE42EE62E052F052F0A128A159621F0
:102DD2000A168A11F5007608A03E8400750883134E
:102DE20080000130F6070318F70A0030F70777086A
:102DF200803AFF0080307F02031D012F07307602E8
:102E0200031C042F052FE62E8312031386120800DB
:102E120083120313A0000130D0000030D1000A1643
:102E22008A11CC260A168A110A128A11A2210A16BE
:102E32008A11831603132D08FD0083120313200841
:102E420084007D0883138000831603132E08FD007F
:102E5200780884007D0880002F08FD00790884002E
:102E62007D0880003008FD007A0884007D0880001B
:102E72003108FD007B0884007D0880003208FD00D7
:102E82007C0884007D0880000800F501F50A7C2F8B
:102E92008312031305108316031305104630F40042
:102EA2007408F00002300A168A117A240A168A116E
:102EB2008316031305140830F4007408F00002307E
:102EC2000A168A117A240A168A1183120313051C20
:102ED2006B2F6C2F6F2FF501F50A712FF501712FF2
:102EE2003C30F4007408F00002300A168A117A2489
:102EF2000A168A117C2F7508031D802F812F492FF6
:102F0200822F0800003401340234033404340534BF
:102F120006340734083409341034113412341334AB
:102F22001434153416341734183419342034213437
:102F320022342334243425342634273428342934C3
:102F42003034313432343334343435343634373443
:102F520038343934403441344234433444344534CF
:102F6200463447344834493450345134523453345B
:102F720054345534563457345834593460348312E7
:102F820003135E08F400F501740883160313A70007
:102F92007508A8004630F4007408F0000A300A16DA
:102FA2008A117A240A168A11831203135D08F40027
:102FB200F501740883160313A9007508AA004630A8
:102FC200F4007408F0000A300A168A117A240A16EC
:102FD2008A11831203135C08F400F5017408831646
:102FE2000313AB007508AC004630F4007408F0001F
:0E2FF2000A300A168A117A240A168A1108007B
:02400E00323F3F
:00000001FF
